S02B00002F55736572732F74686565706972656464796B61727468696B72656464792F53696D706C69636974EA
S3150800000000040020094D0008BF820208BF820208CA
S31508000010BF820208BF820208BF820208BF820208A6
S31508000020BF820208BF820208BF820208BF82020896
S31508000030BF820208BF82020855900008BF820208E4
S31508000040BF820208BF820208BF820208BF82020876
S31508000050BF820208BF820208BF820208BF82020866
S31508000060BF820208BF820208BF820208BF82020856
S31508000070BF820208BF820208BF820208BF82020846
S31508000080BF820208BF820208BF820208BF82020836
S31508000090E1E200088B9B0208BF820208BF820208C1
S315080000A0BF820208BF820208BF820208BF82020816
S315080000B069340008BF820208BF820208BF820208AC
S315080000C0BF820208BF820208BF820208795500086B
S315080000D0BF820208BF820208BF8202088551000853
S315080000E065510008BF820208BF820208BF82020863
S315080000F0BF820208411F0208E1290208B3DC020890
S31508000100AFDC020889210208C9DC0208B7DC02084C
S31508000110B1290208BBDC0208212A0208892A02083A
S31508000120BF820208BF820208BF820208BF82020895
S315080001309D8D0208BF820208BF820208BF8202089C
S31508000140BF820208BF820208BF820208BF82020875
S31508000150BF820208BF820208BF820208BF82020865
S31508000160BF820208BF820208BF820208BF82020855
S31508000170BF820208BF820208BF820208BF82020845
S31508000180BF82020849970008BF820208E3480308AD
S3150800019061040208BF8202089DDC0208A3DC02088B
S315080001A0BF820208BF820208BF820208BF82020815
S309080001B0BF820208F2
S315080001C0013800D0FCE7704738B50022164B51ECD1
S315080001D0100B0EF055FA10A3D3E9002304460D467A
S315080001E00EF0DEFC70B90EA3D3E90023204629469B
S315080001F00EF0B8FC58B9204629460FF023F800EE51
S31508000200100A38BD47F6FF3300EE103AF9E74FF605
S31508000210FF33F9E7AFF300800000000000FCEF4071
S315080002200000000000FCEFC00000E04000000000F5
S315080002302DE9F04F93B0CDE90A32DDE91C530E9350
S3150800024053EC102BCDE90801104619468DED060B27
S315080002501E9E0EF07DFC80B1DDE906014FF0FF32EF
S31508000260C54B0EF09DFC40B9DDE906014FF0FF32A3
S315080002706FF480130EF076FC70B1DDE908019DED90
S31508000280060B0E9B1E96CDE91C53DDE90A3213B008
S31508000290BDE8F04F00F088B90022DDE90601002329
S315080002A00EF060FC002800F03381DDE906A303F1B7
S315080002B0004BCBF30A5016F48063A0F2FF3008BF58
S315080002C006250F930EF072F99BA3D3E900230EF0CF
S315080002D0D7F99BA3D3E900230EF01CF8CBF313043C
S315080002E0894644F07F5180460022A44B504641F48B
S315080002F040110EF00DF894A3D3E900230EF0C0F9CF
S3150800030002460B46404649460EF004F80EF052FCEB
S3150800031004460EF04BF98EA3D3E90023804689469E
S315080003200EF0AEF90022964B0DF0F4FF0EF042FCEB
S3150800033089A3D3E900230746494640460EF0A0F9AB
S315080003408046384689460EF031F985A3D3E900235D
S315080003500EF096F902460B46404649460DF0D8FF80
S3150800036002460B46CDE90C230EF08AF9DDE90C238B
S3150800037080468946104619460DF0CCFF0022CDE985
S315080003801001804B404649460EF0A4FA00227E4BE7
S315080003900DF0C0FF02460B46404649460EF09AFA53
S315080003A000227A4B0DF0B6FF02460B4640464946F8
S315080003B00EF090FADDE90C238046894600204FF0BE
S315080003C080410DF0A5FF02460B46404649460DF012
S315080003D0A1FF02460B46DDE910010EF07BFA07F293
S315080003E0FF3700226A4B0DF095FF00223B050EF001
S315080003F047F952465B46804689460EF0D1FB0028EF
S3150800040040F08980CDE90C8904F16303C72B34BF1A
S315080004100427052731051BD553A3D3E900235046E6
S3150800042059460EF0B3FB00287FD051A3D3E9002329
S31508000430504659460EF096FB002876D00027A5426E
S31508000440C6BF2C1B04F1FF3500253C4646F48066E2
S315080004500E9B9F422CBF4FF00008A3EB070816F02F
S31508000460020903D0002F18BF4FF000083CB1DDE9A0
S315080004700C23504659460EF02DFA82468B46DDE986
S315080004800601002200230EF06DFB10B10BF10043AC
S315080004909B46DDE9080126F40063CDE90183DDE921
S315080004A00A324BEC10AB009500F07EF802465FB3BB
S315080004B0DDE9091316F0200F00F10105089E0CBFAF
S315080004C065204520B047DDE908010523002205938C
S315080004D00A23002CCDE9023207F1FF374FEAD4731D
S315080004E0B8BF64422A46019304970A9B009429F0F0
S315080004F061FA0246B9F1000F06D00B9BC41A0B9B92
S315080005001A190E9BA34245D8104613B0BDE8F08FC2
S31508000510DDE906ABCDE60022404649461A4B0EF009
S31508000520D9F9013CCDE90C016EE7002D90D00F9B5F
S31508000530002B8DD0013D8BE7FB799F501344D33FA9
S31508000540B3C8608B288AC63F61436F63A787D23FCB
S3150800055071A379094F930A401655B5BBB16B024092
S31508000560EF39FAFE422EE63F2D431CEBE2361A3FE0
S315080005700000000080842E41FFFFEF7F0000F83F57
S315080005800000E03F00002C40000024400000184016
S315080005900000F03F2020DDE90913089DA847013433
S315080005A0ADE700BF000000002DE9F04F5BEC10AB93
S315080005B097B0CDE90501DDE92057CDE90723504677
S315080005C052465B465946229E0EF0C2FA70B903237C
S315080005D0CDE902760193B04B0093DDE90501DDE92B
S315080005E0072329F007F917B0BDE8F08F4FF0FF325F
S315080005F06FF48013504659460EF0B4FA28B1042316
S31508000600CDE902760193A54BE6E74FF0FF32504657
S315080006105946A34B0EF0C4FA68B1A24A06F0040381
S31508000620002B08BF0322A04B1CBF13460422CDE9AA
S3150800063002760192D0E7504693A3D3E900235946A0
S315080006400EF0AEFA38B992A3D3E9002350465946BC
S315080006500EF088FA68B1DDE90723DDE905014BEC00
S3150800066010ABCDE92176209517B0BDE8F04FFFF71E
S31508000670DFBD00220023504659460EF073FA0028C3
S3150800068000F09A805B465246002000210DF040FE9D
S31508000690012382468B46099316F4806400F08E8007
S315080006A0092D40F28E80002430210EABA5F10902F7
S315080006B00134202C03F8011BA5EB040901D0944250
S315080006C0F6D1594650460EF075FA784B054603EBB7
S315080006D0C90393ED007B8DED0A7B0DF067FF02469B
S315080006E00B46504659460DF013FEDDE90A230DF078
S315080006F0C7FF02460B46CDE90C230EF083FA804667
S315080007000DF044FF02460B46DDE90C010DF000FE34
S3150800071002460B46CDE90C230022654B0EF040FA43
S31508000720002851D008F1010840460DF02FFF024677
S315080007300B46DDE90A010EF01FFA10B14FF000086A
S315080007400135B9F1000F50D128460DF02FFF0246AA
S315080007500B46504659460DF0DBFD0022544B8046A9
S3150800076089460EF0FFF930B1002240464946504B03
S315080007700EF016FA10B1E80700D501350A210EABBE
S315080007801A19202C0AD095FBF1F001FB10553035CB
S3150800079002F8015B013405460028F2D106F003028F
S315080007A0012A57D1002F55D0099A12B916F00C0F05
S315080007B000D0013F302245E009906DE74FF0060969
S315080007C07FE7A94600247CE70022DDE90C01384BC7
S315080007D00EF0C8F90028B4D1B8F1000F02D018F00D
S315080007E0010FAED008F10108ABE70A210EAB23448E
S315080007F0202C0ED0B8FBF1F001FB1082B8F1090FDE
S3150800080002F1300209F1FF3904F1010403F8012B62
S3150800081011D83021A1440EAA202CAFD0A14504F14D
S3150800082001030AD11C4609F158030DEB03092E23CF
S3150800083009F8203CA2E78046DAE7A1541C46EBE714
S315080008401A550134A74205D9202CF9D1CDE90276EB
S315080008500194C1E6202CF9D0099A3AB12D2104F168
S3150800086058026A4402F8201C0134EFE7710704D5E0
S3150800087004F158022B216A44F4E73207E6D504F15D
S31508000880580220216A44EDE70000000065CDCD41FD
S315080008900000000065CDCDC1F97F0308FD7F030880
S315080008A0FFFFEF7FF07F0308F57F03080880030842
S315080008B00000E03F0000000051EC100BC1F30A53A2
S315080008C02DE9F041A3F2FF350C460646132D32DC1E
S315080008D0002D20DB384B0F4643FA05F801EA0803DA
S315080008E003432DD032A3D3E900230DF013FD0022D4
S315080008F000230EF055F940B1002C03DA4FF48013AB
S315080009002B411F4427EA080400262346324643ECB7
S31508000910102BBDE8F08126A3D3E900230DF0FAFCDD
S31508000920002200230EF03CF90028EED0002C2ADB2A
S3150800093000263446E9E7332D06DDB5F5806F1BD072
S3150800094041EC100BBDE8F081A3F213434FF0FF37DB
S31508000950DF400742F4D016A3D3E900230DF0DAFCF2
S31508000960002200230EF01CF90028CED0002C3346B6
S3150800097010DB23EA0706C8E702460B460DF0CAFC59
S3150800098041EC100BDEE724F0004426430DD14FF06E
S315080009900044BAE7142D06D0C5F134050122AA4051
S315080009A01344B342E5D20134E3E70026034CACE72F
S315080009B09C7500883CE4377EFFFF0F000000F0BFFF
S315080009C02DE9F74F0446DDE90C7B886816469A46FA
S315080009D00D460DF0FDFD8046B06889460DF0F8FD20
S315080009E002460B46404649460DF04AFE8046894671
S315080009F0BAF1000F1BD0DAF808000DF0E9FD02463F
S31508000A000B46404649460DF083FC8046B86821F0FF
S31508000A1000490DF0DDFD02460B46404649460DF0FD
S31508000A2059FF12A3D3E900230EF0A6F850B13B46AE
S31508000A30324629462046CDF830B003B0BDE8F04F1F
S31508000A4010F07EB9064B20460093656940F24513BF
S31508000A50044A0549A847012003B0BDE8F08F00BF46
S31508000A60EF3C0408383C0408A94903087B14AE4740
S31508000A70E17A943F000000002DE9F84F4FF000435B
S31508000A802DED028B23FA00F057EC106B59EC118B05
S31508000A9093468A460DF08AFD424604460D464B4665
S31508000AA0304639460DF0ECFD02460B4620462946EF
S31508000AB00DF0E6FD02460B4643EC182B0AA3D3E9D4
S31508000AC000230EF06DF808B19FED078B5946504686
S31508000AD0B0EE480AF0EE680ABDEC028BBDE8F84FA6
S31508000AE010F07ABBAFF300800000C0FFFFFFDF41C4
S31508000AF02DE9F0432DED028B99460B7F89B0072B24
S31508000B0004460F461546129E1AD140F20241836BDF
S31508000B10984740B9AC4B0093272365692046AB4AF2
S31508000B20AB49A84799E0B06240F202412046A36B60
S31508000B30984720B9A74B009365692B23EEE7F06227
S31508000B402A7F3B7F072A08D1092B3DD0072B13D0D4
S31508000B50A14B009365693123E0E79A4234D0CDE989
S31508000B6002329E4B01939E4B0093342365692046BF
S31508000B70964A9C49A84770E0D5F80C80B8F1000F52
S31508000B8009D00023CDE90283974B0193974B009335
S31508000B9065693923EBE74146DFED950A47F6FF70AD
S31508000BA09FED940AB36A944A11F0B2F8F36A414683
S31508000BB0DFED8F0A9FED910A914A924811F0A8F845
S31508000BC0EB68F361AB68336297F81C80B8F1090FDC
S31508000BD045D0B8F1070F40F03781FB684BB10022CA
S31508000BE0CDE90232804B0193874B009365695B23FD
S31508000BF0BDE7EA6842B1CDE902237B4B01937B4B03
S31508000C00009365695C23B2E7DFED807A95ED027A99
S31508000C10B4EEE77AF1EE10FADFED7D6ACCBF77EE37
S31508000C20677A77EEC77AF4EEE67AF1EE10FA7EDDA9
S31508000C304FF07C53002217EE100ACDE904230DF07D
S31508000C40C7FC744BCDE902010193734B00935D23F6
S31508000C50656920465D4A7149A847012086E0287FD4
S31508000C60072832D1EB6813F5004F09D0654ACDE95C
S31508000C7002326B4B01935D4B00936569622376E7FD
S31508000C80DFED687A95ED027AB4EEE77AF1EE10FABE
S31508000C90DFED656ACCBF77EE677A77EEC77AF4EE52
S31508000CA0E67AF1EE10FA66DD0022604B17EE100ABE
S31508000CB0CDE904230DF08CFC5D4BCDE902010193CF
S31508000CC0554B009365696323C3E7092812D0666903
S31508000CD00FF0FAFF054640460FF0F6FF554BCDE9F3
S31508000CE0025001933D4B009366232046374A5249EA
S31508000CF0B047B2E7EB6813F1800F0AD06FF07F02B6
S31508000D00CDE902324D4B0193384B00936569672351
S31508000D102DE795ED027ADFED4A7AB4EE677AF1EEC1
S31508000D2010FA28D0474B009365696823F6E6B86839
S31508000D300DF04EFC0446D9F800000D460DF048FCAF
S31508000D4002460B46204629460DF09AFC1CA3D3E919
S31508000D5000230DF0BFFD06F1080841EC100B4046D4
S31508000D6007A910F0F1F9079BF360002009B0BDEC64
S31508000D70028BBDE8F083B8680DF02AFC41EC180B2D
S31508000D80D9F800000DF024FC06F1080441EC100B1C
S31508000D90B0EE481AF0EE681A2146052007AAFFF7B2
S31508000DA06BFE07991F22F160052029F07DF80DF0EA
S31508000DB0FDFB01F100410DF0FDFEB061D5E700BF76
S31508000DC0140014001400243F0A4D0408894C040832
S31508000DD0A9490308214D0408933D0408F54B040866
S31508000DE0024C0408164A0308ED3C0408444D04085E
S31508000DF080000038A000203935A20208800080371C
S31508000E0027A202080080FFFF5E4D04080000003894
S31508000E106F120333974D0408A34D0408774D040851
S31508000E20B84D0408000080376F1283320000F03E88
S31508000E30BF4D0408CB4D0408DB4B0408D74D040806
S31508000E400000803BDC4D0408B8F1010F0FD0404686
S31508000E5066690FF039FF054601200FF035FF104B84
S31508000E60CDE9025001930F4B009385233DE7287F78
S31508000E7001280ED066690FF027FF054640460FF099
S31508000E8023FF074BCDE902500193074B00938623B6
S31508000E902BE7D9F800000DF09BFBC6E9000164E7D3
S31508000EA0FE4D0408024C0408F54B04080000000037
S31508000EB007B588B10BA3D3E900230949C1E9022381
S31508000EC0CDE900234FF0FF324FF0FF3308692CF0CD
S31508000ED0CBF903B05DF804FB00220023EDE700BF61
S31508000EE0505B05200DD50155200000000348044B32
S31508000EF0834202D0034B03B118477047A017072057
S31508000F00A017072000000000064B0749C91A8910D8
S31508000F1048BF0131491003D0044B0BB101481847AB
S31508000F20704700BFA0170720A01707200000000081
S31508000F3010B5064C237843B9FFF7D8FF044B13B115
S31508000F400448AFF300800123237010BDF602072082
S31508000F50000000008CCC050808B5054B1BB10549F7
S31508000F600548AFF30080BDE80840FFF7CDBF00BFD6
S31508000F7000000000B05D05208CCC0508A3F5803A7A
S31508000F80704700BF174B002B08BF134B9D46FFF752
S31508000F90F5FF00218B460F461348144A121A28F00B
S31508000FA040FE0E4B002B00D098470D4B002B00D06F
S31508000FB098470020002104000D000D48002802D0A3
S31508000FC00C48AFF300800EF065F92000290028F0E0
S31508000FD0C8F80EF03DF900BF000008000000000048
S31508000FE00000000000040020000400200815072067
S31508000FF0000000000000000008B5024801F04EFAA3
S31508001000FEE700BF384903082DE9FF471446DDE926
S315080010100E7E1A46DDE90C63D1ED025A616892ED3F
S31508001020025A0C689FED1E7A0021DFED1E6ADDF874
S3150800103040C004340DF10C080DF104090DF1080A3D
S31508001040614506DB0C97317804B0BDE8F0470FF030
S31508001050A9BEB4EC016A25EE866AC6EE057A67EE85
S31508001060807AF4EEC77AF1EE10FACDED017A4CBF2C
S3150800107045464D468DED037AD5ED007AF4EE667A4F
S31508001080F1EE10FACDED026AC8BF5546D5ED007AE5
S31508001090F3EE677A17EE905A2EF811500131CFE722
S315080010A000E07FC700E07F472DE9F04FCC68054692
S315080010B00E46AFB00CB9FFF79FFFD1F81080B8F114
S315080010C0000FF8D0C76800223B683846DB699847A6
S315080010D03B68022231469B698346384698473B68F7
S315080010E0002231469B698246384698473B688146C6
S315080010F00122314638469B6998470C90B9F1000F92
S3150800110009D16F4B009376236C6928466D4A6E4960
S31508001110A0470120BBE0BBF1000F04D16B4B009345
S315080011206C697723F1E70C9B23B9694B00936C69CB
S315080011307823EAE7D9F814305A6822611A69626195
S315080011409A68DB680D920E9323620C9BE2615B69D9
S315080011505A689E680B92DB686262DBF814200F936C
S315080011609168D268A364D9F80C30E1625B42E36601
S31508001170DBF80C3022632367D8F8083066641093CE
S315080011802365D8F8043011936365D8F8143063667C
S315080011901293D8F810301393A36698F800305A1EA5
S315080011A014935342534184F85830139BDDE90E12C9
S315080011B000931498119B26F083FB129B32460D99D7
S315080011C0159000931498109B26F07AFB129B013E0B
S315080011D05E43109B0138013603FB00660D9B139A8C
S315080011E0F61A0F9B1199013B5343159A0133013A9D
S315080011F001FB02330E9A99F81C009B1A26EAE6763A
S3150800120023EAE37376105B100928E665236640F047
S31508001210D68004F11006304626F0EAFF04F13403BE
S315080012200E9304F13803AA6B08F10C080D930028F5
S3150800123054D0002323700B9B284659000F919047E2
S315080012400F99BAF1000F37D000239FED227AE06498
S315080012500B9A9A421EDCAB6B28469847E0630F90C0
S31508001260304626F0E4FF0B9B064604930F9B9FED42
S315080012701A0A03930D9B494602930E9B2846CDE90D
S3150800128000830C9A5B46FFF7BFFE002878D02FB084
S31508001290BDE8F08FDAF8102002EB8302D2ED007A6F
S315080012A0F8EEE77A67EE877AF3EE677A17EE902A12
S315080012B020F813200133CBE7C4F84CA0CBE700BFD6
S315080012C0C049030840490308A9490308D149030846
S315080012D0E349030800000038000000470B9B284636
S315080012E09E00314690473146AB6BA0672846984723
S315080012F00B9BE067CDE90703A36F494606930D9B51
S31508001300284605930E9B0C9A049317AB039316ABCA
S31508001310CDE90183CDF800B053460FF0C7FD00288C
S31508001320B5D101232370E36E1CAA2493236F18A951
S315080013302593236D24A82793636D2693636E2B93B9
S31508001340A36E2A93E36D2993236E2893636B2C93DC
S31508001350A36B2D9323691893E3691993236A1A9348
S3150800136063691B93636C1D93A36C1E93E36A2193B5
S31508001370236B2293636A239320AB17F02BFB064655
S31508001380002E2EDD314628462B6C04F10C029847B8
S3150800139000287FF47CAF3B68494638465B6A984725
S315080013A03B6838465B6A0C9998473B685946384605
S315080013B05B6A9847BAF1000F29D1002067E7012830
S315080013C01DD10223237098F80C30012B03D100237A
S315080013D06360124B04E0032B07D100236360104BB4
S315080013E0A3604FF0FF33E360D5E7022B04D10D4B22
S315080013F063604FF07E53F3E76FF40003E8E76C6928
S315080014000FF062FC084902462846A04781E63B6879
S31508001410514638465B6A9847CFE700BFFFFF7F7F94
S315080014200000C040000080BFF549030830B585B00C
S315080014300C46054608990AB9FFF7DEFD1268A2614F
S315080014400029F9D00A68A262002BF5D0E1681B686A
S315080014500029236402DB436C9847606704F1100097
S3150800146026F010FE70B100230293074B03900193F8
S31508001470064B284600936C694FF48A73044A05495B
S31508001480A047012005B030BD304A0308374A030893
S3150800149040490308164A03082DE9F04F2DED048B41
S315080014A016461D46B1F96030B7B00993B1F95C30FC
S315080014B091ED019A0A93B1F95430D1ED029A0B9342
S315080014C0B1F950301AA80C93B1F96830459C0D93C0
S315080014D0B1F9643011460E9328F071FE0EB9FFF784
S315080014E08BFD3368294621A8109328F068FE002D45
S315080014F0F5D02B68449928A80F9328F060FE449BE2
S315080015000BB11B68449321462FA828F058FE002CDF
S31508001510E5D0236819931A9B042BE0D1219B042B51
S31508001520DDD12F9B042BDAD100232FAA19461AA83E
S3150800153026F0B7F90323129000212FAA21A826F036
S31508001540B0F9449B1E9C059043B1002201232898BC
S3150800155028A9824229DB059A9A42C0D11C9B13937B
S315080015601D9B1493239B1593249B1693259B0393EA
S3150800157094FBF3F3002BB2D0039A02FB1344002C1E
S31508001580ADD1059A92FBF3F30893002BA7D0319BB4
S315080015901793329B1893129BA34240F39F800A9B92
S315080015A05B4206930023049314E051F8045F01326A
S315080015B06B43CEE74FF00009099B5B420793189BE4
S315080015C04B4500F38980049B0C9A01330493069BD0
S315080015D013440693179B049A9342EBDC0134DAE72B
S315080015E0089B4FF0000A95FBF3F3DFED3F8A039A59
S315080015F0069E53431193159B53452CDC449B002BA5
S3150800160067D003EB850393ED008A38EE288AB4EE9B
S31508001610489AF1EE10FA39FE088AF4EE489AF1EE85
S3150800162010FA4B4600952146049A2FA848BFB0EEFB
S31508001630698A26F004F9199B013503EB800080EDD1
S31508001640008A059BAB42CBDC079B0B9A09F1010983
S3150800165013440793B3E74FF0000B079F169B5B45B0
S3150800166004DC0E9B0AF1010A1E44C4E756EA070386
S315080016702AD4149BBB4227DD139BB34224DD4FF0CB
S3150800168000081EE0119B32464344214600931AA8DF
S315080016903B4626F0D4F8109B524603EB800090EDAB
S315080016A0008A5B46CDF80080294621A826F0C7F8AF
S315080016B00F9B08F1010803EB8000D0ED007AE8EEF5
S315080016C0278A039B4345DDDC0D9B0BF1010B1F4469
S315080016D0C4E79FED058A98E70025B2E7002037B0F2
S315080016E0BDEC048BBDE8F08F00000000002313B5A5
S315080016F00446CDE90033044A044B054928F035FD74
S31508001700204602B010BD00BFA9100008C179020822
S315080017102D7802082DE9F04FCC6807460E4695B09D
S315080017200CB9FFF769FC0B690393002BF9D0C56860
S3150800173000222B6828469B6998472B680122314668
S315080017409B698146284698472B68022231469B6941
S315080017508346284698472B68804600223146284605
S31508001760DB6998478246B9F1000F0BD16D4B0093A0
S315080017704D237C6938466C4A6C49A047012015B050
S31508001780BDE8F08F20B96A4B00937C694E23F1E7D8
S3150800179099F81C6006F0F706012EEFD1B8F1000F94
S315080017A000F09F8041460CA828F0BFFB00220C9948
S315080017B00CAB8A42C0F2908099F81C30092B72D182
S315080017C0039B524619780AAB0093384609AB0FF0CB
S315080017D0E9FA0028D3D100220023CDE90C230CAB6B
S315080017E0CDE900A35A46434649463846FFF7E8F886
S315080017F00028C4D1D9F81030D9F81410A36004A869
S3150800180026F04BF904F10C0C04AB0FCB8CE80F0057
S31508001810D9F80C305B42E361BBF1000F63D0DBF80B
S315080018201030DBF81410236204A826F036F904F108
S31508001830240C04AB0FCB8CE80F00DBF80C30DAF87D
S3150800184014105B4263630023C4E90E36DAF81030DD
S3150800185004A8236426F021F904F1440C04AB0FCB49
S315080018608CE80F00DAF80C309DED0C0B6365FEF77B
S31508001870ABFC10EE103AA4F85830099B04F10800A6
S3150800188084F85A300A9B84F85B3026F0D9FC84F831
S31508001890600050BB20469DED0C0B0BA90FF054FCC5
S315080018A00B9B5B4263602B68494628465B6A9847F0
S315080018B02B68594628465B6A9847B8F1000F04D04A
S315080018C02B68414628465B6A98472B682846514646
S315080018D05B6A9847002052E753F8040F01324643E3
S315080018E067E7464668E75B469BE7B8F1000FDAD03C
S315080018F0D8F81030384603937100BB6B98470746F3
S3150800190000283FF43BAF01463246039802F06AFED0
S3150800191000287FF433AF94F86030A763002BC2D158
S31508001920B8E700BFC0490308444A0308A9490308A1
S31508001930D14903082DE9F04F2DED028B012AA1B0FC
S315080019401C46DDE92C762E9D15D0032A18D0F7EE15
S31508001950007ADFED4C8A022A9FED4B8A47FEA88A59
S31508001960FFEE007A07FE888A214604A828F027FC9D
S315080019704CB9FFF741FBDFED438A9FED448AF3E755
S31508001980F1EE088AF9E7236839460BA8039328F08D
S3150800199016FC002FEDD03B68314612A8029328F0BA
S315080019A00EFC002EE5D0294619A8376828F007FC52
S315080019B0002DDED0199C2B68013C214619A80193FD
S315080019C026F054F80B9D0090A91E0BA825F022FFBF
S315080019D02146814619A825F01DFF81450446C8D130
S315080019E0691E0BA825F016FF002302469C461846DA
S315080019F0DFED266A009961453DDD0025019901EB79
S31508001A008009039901EB8308294621E0BAEC016AAB
S31508001A10BBEC017AE6EE077A0EF1010E7245F5DCAB
S31508001A200FB307EB810E9EED007A77EE877AF4EE18
S31508001A30487AF1EE10FA48BFF0EE487AF4EE687A82
S31508001A40F1EE10FA78FEA77AE9EC017A013115442D
S31508001A50A1420BDA029EC2464FF0000EDFED0B7A6A
S31508001A6006EB850BDAE7B0EE667ADEE70CF1010CD9
S31508001A7020441344BEE7002021B0BDEC028BBDE82C
S31508001A80F08F00BFFFFF7F7FFFFF7FFF0000000092
S31508001A90002313B50446CDE90033044A044B05492F
S31508001AA028F063FB204602B010BD00BF15170008DA
S31508001AB05D1D00085B7A02082DE9F04F92F8607008
S31508001AC0E1B01446DDE96A981E466C9D08905FB140
S31508001AD01F7A092F08D1CDE96B85CDF8A89161B099
S31508001AE0BDE8F04F25F0F4BFB8F1000F01D1FFF7BC
S31508001AF083FAD8F80070002F00F08B8029462FA8AB
S31508001B0028F05DFB2F9B022BF1D1309B494636A866
S31508001B10DDF8C4B0099328F052FB369936A8013986
S31508001B2025F078FE314682463DA828F048FBE26952
S31508001B30CDF874A02A92626D099B2C92626B30468E
S31508001B402B9294F95A201A932D9294F95B201EAF82
S31508001B502E922268169262680124CDE91EA44FF0DF
S31508001B60000A5242CDE926341792CDE9204BCDE939
S31508001B70244BCDE9284BCDE91B44CDE92244CDE9D8
S31508001B8018AA25F09FFF8346484625F09BFFD8F8FC
S31508001B900030002DABD02A682AA9069226AACDE9DC
S31508001BA0043222ABCDE90203CDE900B71AAB16AA77
S31508001BB018A816F0C5FE50B3089B3046D3F814B0E3
S31508001BC025F080FF0646484625F07CFF2B6816AAB6
S31508001BD0069326AB0593D8F800302AA9049322ABBE
S31508001BE0CDE90203CDE900671AAB18A816F0A8FEDE
S31508001BF0564BCDE9020A0193554B08980093554A6E
S31508001C00E4235549D847204661B0BDE8F08F002047
S31508001C10FAE7E36931460B93636B44A80C93636D4B
S31508001C200D9323680E9363685B420F9394F95A30B9
S31508001C30089394F95B30099328F0C1FA304625F0E9
S31508001C4041FF494610904BA828F0B9FA484625F0B6
S31508001C5039FF4146119052A828F0B1FA294659A8E9
S31508001C60D8F800B028F0ABFA002D3FF440AF4B9EF1
S31508001C702B68012E14937FF73AAF599C002C7FF7F7
S31508001C8036AFDDE9083293423FF731AF013C2146D2
S31508001C9059A825F0EBFE2146129059A825F0BAFD61
S31508001CA0B11E05464BA825F0B5FD85423FF71FAF87
S31508001CB0711E4BA825F0AEFD3C460646B946BA4607
S31508001CC0129B5345A3DD4FF00008149B47464B442F
S31508001CD00A932BE01EF9012B0C9913921CF9012B80
S31508001CE001330A4415920B99139A0A441146159A18
S31508001CF001FB02009E42EDDCBBF1000F02D05BF84F
S31508001D0027301844DDE90E120FF0E6F90D9B01376E
S31508001D101844089BB0449842B8BF1846099B984295
S31508001D20A8BF18460A9B03F8010B0A93BD4208DDB3
S31508001D30109B03EB040E119B03EB080C00231846BB
S31508001D40D8E70AF1010AA9443444B9E7B84A0308AE
S31508001D50CD4A0308444A0308164A03082DE9F04306
S31508001D60D1F8109004460D4685B0B9F1000F01D19F
S31508001D70FFF742F9002228F01AFA012229460646F8
S31508001D80204628F014FA022229460746204628F05B
S31508001D900EFA002280462946204628F00AFAEA6802
S31508001DA00346002AE4D0307A01280BD0092816D039
S31508001DB065690EF089FF337A02460D492046A84721
S31508001DC0012009E099F800202946CDE9018320463B
S31508001DD033460097FFF7AEFD05B0BDE8F083CDE9C1
S31508001DE001832946334620460097FFF765FEF3E749
S31508001DF0F14B03082DE9F041CC6805460E46A4B020
S31508001E000CB9FFF7F9F80B69002BFAD0002228F075
S31508001E10CEF9002280463146284628F0CAF90746F8
S31508001E20B8F1000F0AD1444B009340F209136C69CC
S31508001E302846424A4249A047012014E028B9414BA6
S31508001E4000936C694FF48573F2E7D8F8003002689E
S31508001E5094F84C602361E261B6B904F1080026F0F3
S31508001E6023FA18B9002024B0BDE8F081364BCDE935
S31508001E7002600193354B284600936C6940F21113B2
S31508001E802E4A3349A047D7E7012E2ED16169206A29
S31508001E900891A16907960991E1680C90606ACDE9F5
S31508001EA00A16CDE90D01A16B05A81A91E16B1991E6
S31508001EB0616C1C91A16C1B91A16A1D91E16A129635
S31508001EC01E91216B1391616BCDE914160021CDE9A2
S31508001ED0051102920BAA019212AA009219A907AA41
S31508001EE016F030FE0028BDD08BE7022EA4D1A36BD6
S31508001EF041461C93E36B0BA81D93236B1E93636BE0
S31508001F001F93636CADF86830A36CADF86630236830
S31508001F1022936368239328F052F9394612A8D8F811
S31508001F20004028F04CF93B68224600930BA912ABF7
S31508001F3019A825F0EBFD95E7C04903080D4C0308E1
S31508001F40A9490308D1490308304A0308374A030850
S31508001F50164A03082DE9F04FD1E90345C6689BB038
S31508001F60336800229B69814630468846984733681D
S31508001F70074641460022DB693046984780462B785B
S31508001F8039465A1E5342534184F84030AB680CA870
S31508001F90A3636B684FF0010BE3632B692363EB685C
S31508001FA0636327F0C2FF414613A827F0BEFF00234C
S31508001FB013AA19460CA825F074FC3946A0600CA88B
S31508001FC027F0B3FF414613A827F0AFFF032313AA50
S31508001FD019460CA825F065FC7B69E0609A68D3F879
S31508001FE00CA0D8F81430626103929A68DB68226202
S31508001FF063620A93AB68514604936B68C4F818A0E9
S3150800200005932B6909920693EB6807932B78079A31
S3150800201008930898059BCDF800B025F051FC049B61
S31508002020069A03990B90CDF800B0089825F048FC5D
S315080020300499069A431E01FB0322039B0799D21AA9
S3150800204022EAE2720B9B42FA0BFC059A013B02FB61
S315080020500313099AA3EB0A0323EAE373824243FABA
S315080020600BF301D0FEF7C8FFDDE90A218A42F9D150
S31508002070C4E911C33B7F297D012B24D10223012901
S3150800208084F84C3003D1002323601B4B04E003295A
S315080020900FD100232360194B6360336839463046F5
S315080020A05B6A98473368304641465B6A9847002022
S315080020B01EE0022904D1124B23604FF07E53EBE752
S315080020C06FF40003E0E704F12C0300934246484608
S315080020D004F128030EF066FE387F0928DDD0D9F80A
S315080020E014400EF0F1FD074902464846A0475846F7
S315080020F01BB0BDE8F08F00BFFFFF7F7F0000C04028
S31508002100000080BFF54903082DE9F743D1F80C9084
S3150800211005460E46B9F1000F01D1FEF76DFF0B69B2
S31508002120002BFAD0C4680022236820469B6998478A
S3150800213023680746002231462046DB6998478046D1
S3150800214067B9174B00939A236C692846154A1649AE
S31508002150A0470125284603B0BDE8F08320B9134BF4
S3150800216000936C699B23F0E728463146FFF7F2FE99
S31508002170054650B93B7F092B07D109F1080026F01F
S3150800218096F880F0010089F84C0023683946204605
S315080021905B6A98472368414620465B6A9847D9E7B1
S315080021A0C04903080D4C0308A9490308D149030887
S315080021B0002313B50446CDE90033044A044B054908
S315080021C027F0D3FF204602B010BD00BF0921000842
S315080021D0F51D0008FB7A0208D0F8BC2038B5052A98
S315080021E006D8002300F190049A4205D100200AE09F
S315080021F0064800F053F9FEE754F8045F8D4203D110
S315080022002A3350F8230038BD0133EDE7384903086F
S3150800221020292DE9F04105460F461446984607D170
S315080022201F4827F024FFBDE8F0411E4827F01FBFCE
S3150800223003681B68984740B11B4827F018FF3946C2
S315080022401A48BDE8F04127F012BFD5F890C0BCF196
S31508002250040F06D93946164827F009FF05211548FF
S31508002260EFE74FF01C0E0FCC0EFB0C5E0EF10406CA
S315080022700FC6D5F8BC3094E8070086E807000CF1CD
S315080022800102CEF81870C5F8902005EB83020133D9
S31508002290C2F89470C2F8A880C5F8BC30BDE8F081D1
S315080022A0794C0308AA4C0308BF4C0308EE4C0308F4
S315080022B00F4D0308404D0308014B1868704700BFCF
S315080022C0585F0520014B1868704700BF545F05200A
S315080022D0014B1868704700BF505F052030B5244D84
S315080022E089B0D5E8AF4F14F0010411D1284627F07C
S315080022F05FFC68B11F48204B204A21490360C0F89B
S315080023009040C0F8BC4027F04EFC284627F05CFCFD
S3150800231001A8FFF7EBF901AA03211A4B1548FFF7A5
S3150800232077FF01A8FFF744FF01AA1121164B1148B0
S31508002330FFF76EFF01A80FF0DBFC01AA1621134B6D
S315080023400C48FFF765FF01A8FFF7A2FB01AA0921C0
S315080023500F4B0848FFF75CFF01A800F031FA192176
S315080023600C4B044801AAFFF753FF024809B030BDD9
S31508002370C85D0520CC5D0520B04D0308141507205F
S31508002380A97C02086B9D0208F79D0208590B0108F3
S31508002390D10B0108790C01082DE9FF412F4CD4E82F
S315080023A0AF3FDB070BD4204627F002FC38B12C4A96
S315080023B02C492D4827F0F7FB204627F005FC2A4B29
S315080023C02A4E33602A4B1A68D7189B58FB1A1A8864
S315080023D0042A04D99B8813B1FB58032B04D025493A
S315080023E0214827F076FCFEE7FFF778FF8046224D66
S315080023F0D5E8AF4F14F0010415D1284627F0D8FBCD
S3150800240088B11E4B424639460093CDE901441C4B20
S315080024101C4827F0BAFD124A1B491A4827F0C3FB85
S31508002420284627F0D1FB1748184D28600FF058F8B2
S31508002430044620B11649306827F04BFCFEE70146F2
S3150800244028680EF023FF134B2146186028680EF003
S3150800245033FF114B186004B0BDE8F0814C5F0520CE
S3150800246014150720A77C0208181507205C5F0520AD
S315080024701C850308534D03088C5E0520305705005C
S3150800248000040020905E05202FA00208585F052052
S31508002490704D0308545F0520505F052038B5094B79
S315080024A004461B7863B107F0FDFD0546204627F074
S315080024B0CDFB214602462846BDE8384026F070BCCA
S315080024C038BD00BF681707202DE9F0470B6804469A
S315080024D00F46C56892B013B11B68012B11D00122B3
S315080024E0CDE902323C4B01933C4B00932F2365699F
S315080024F020463B4A3B49A8470124204612B0BDE87E
S31508002500F0874B6813B11B68012B09D00122CDE96E
S315080025100232314B0193344B009365693023E7E768
S315080025202B68002228469B699847064640B92F4BD8
S315080025300093322365692046294A2D49A847DBE7D7
S3150800254043691B68002B04DC2A4B00936569332317
S31508002550F1E72B68002239462846DB69984780460A
S3150800256020B9254B009365693523E4E7D7F80C9025
S31508002570B9F1000F04D1214B009365693723DAE7D7
S31508002580CDF800903B69024631462046FEF7B0FA80
S315080025903146044604A827F0C8FC41460BA827F094
S315080025A0C4FC049F0BAA013F394604A825F0BAFBD0
S315080025B03B46824639460BAA04A825F072F92B68D1
S315080025C03146C9E90EA05B6A284698472B684146FA
S315080025D028465B6A984790E7984E03085F4E0308BB
S315080025E0C44D0308164A03086F4E0308C04903087A
S315080025F0A9490308804E0308D14903089A4E0308DF
S315080026002DE9F04F2DED048B0C460E6885B0013E82
S3150800261031460090914620461A461D4625F082FB13
S3150800262033462A4631460746204625F03AF900261B
S315080026300446B046DFED299A03AAB84504DB05B07F
S31508002640BDEC048BBDE8F08F09EB860B5846B0EE5F
S31508002650698A0021B500A1428DED038A0FDB129B22
S315080026604FF0000A1D442B46DFED1D8AA24514DBF8
S315080026700023A3422ADB08F101082644DDE70346C6
S31508002680D3ED007AF4EEC87AF1EE10FAD8BF134605
S31508002690043093ED008A0131DDE70193009BBBEC22
S315080026A0019AD3E900010CF0CDFA39EE489A00EE0A
S315080026B0100A20EE090A0CF039FE019B78EE808A92
S315080026C0A3EC010A0AF1010A03AACFE795ED007AFD
S315080026D0C7EE287A0133E5EC017ACAE7FFFF7FFFE8
S315080026E000000000F0B50022A5B00C46054627F00C
S315080026F05EFD214607460022284627F05AFDE46873
S3150800270006460CB9FEF778FC14AD0FCC0FC50FCCF6
S315080027100FC50FCC0FC594E80F0085E80F00387A6F
S3150800272007282DD0092817D001283ED1394606A8F2
S3150800273027F045FD31460DA83C6827F040FD002EE0
S31508002740E0D033682246009306A90DAB14A8FFF71C
S3150800275057FF002025B0F0BDD6F800C0367A1A9D7E
S31508002760179C092E38682299CDE9015C169B239A95
S31508002770009402D116F07EFBEBE716F089FBE8E73A
S315080027801E9B386804931F9BDDE922120593DDE939
S315080027901634002EB6D03568029504ADCDE900454D
S315080027A016F084FB0028D4D0ACE70EF08DFA3A7AFE
S315080027B00146024827F05BFC0120CBE7F14B0308F2
S315080027C0002313B50446CDE90033044A044B0549F2
S315080027D027F0CBFC204602B010BD00BFC924000874
S315080027E0E5260008137D02087FB5254A08281388C0
S315080027F0ADF80030ADF80430ADF80830ADF80C305F
S315080028004FF42063ADF810305388ADF814300ADC65
S3150800281000280EDD013807280BD8DFE800F00C1574
S315080028200A1A0A0A0A1E202821D0402823D010286E
S3150800283017D0E12116E001220421684602F0B6FB12
S31508002840002007B05DF804FB042101220DEB01000E
S31508002850F4E70122042102A8F0E70122042103A8D3
S31508002860ECE7CA21074825F0DFFA0E20E9E701223E
S31508002870042104A8E2E70122042105A8DEE700BF37
S31508002880314F0308B54E030808B5064831F032FF44
S3150800289027F031F94020FFF7A7FFBDE8084000F010
S315080028A049BA00BFF4740308014831F023BF00BFDA
S315080028B0F4740308F0B54B1E012B07460E468DB07F
S315080028C000F29080DFF858C103AC65460FCD0FC4FF
S315080028D00FCD0FC42B6844482360BCF82430BF01D1
S315080028E0ADF80030BCF82630ADF80430BCF8283016
S315080028F0ADF8083031F0FEFE3C4831F0FBFE002210
S315080029000121684602F052FB042100220DEB01006A
S3150800291002F04CFB0022042102A802F047FB052323
S315080029208DF80C3001238DF820304FF44073012EBA
S3150800293003A92F4808BF8DF82B60ADF828300597F6
S3150800294005F028FB0D222B4B1A622B4A1A634FF00F
S3150800295003125A6302F500325A6202F073FD00212F
S31508002960264802F0F7FC044618B1012420460DB0AB
S31508002970F0BD234A012ED37823F03C0343F03403F9
S31508002980D370D37C23F03C0343F03403D37412D1C1
S3150800299001461C4802F0DEFC0028E6D11A4AD37824
S315080029A023F03C0343F03403D370D37C23F03C0379
S315080029B043F03403D37431F074FA0121054608460E
S315080029C030F074FC284631F067FA104B104A1E7036
S315080029D0002313700F4A13700F4A137001220F4B0E
S315080029E01A70C3E72124C1E7F4740308E4740308E2
S315080029F000000A5000C8035003000400645F052065
S31508002A003C150720605F05201C150720F7020720E4
S31508002A10FB020720FA020720F9020720F80207201E
S31508002A20384F0308184B73B51B78002B28D0174D61
S31508002A302C783CBB164A174E136817483340034395
S31508002A4013601369154933400343154891601361B0
S31508002A5091610094134B1449006802F027FD134B4B
S31508002A601B78012B07D1124800942346114A1249B4
S31508002A70006802F01BFD012300202B7002B070BD18
S31508002A801120FBE70220F9E7F8020720F9020720E0
S31508002A903C1507200F80FFCFF07F0030369D0520BC
S31508002AA0645F0520152C00086C150720F70207201F
S31508002AB0605F05201C1507205C150720184B2DE9BB
S31508002AC0F0411B7804460D4616461BB3154B1B787A
S31508002AD013BB154F3B78FBB9DFF8608098F80030D8
S31508002AE04B43B3F5006F19D8104B1B780BB9FFF79A
S31508002AF099FF98F8003000205D430D4B1D600D4B83
S31508002B001C6004EB45045C600B4B1E6001233B70A4
S31508002B10BDE8F0811120FBE70220F9E72120F7E75D
S31508002B20F8020720FB020720FA020720F90207200D
S31508002B306C5F0520705F05207C5F0520F702072083
S31508002B4010B50C4C237893B10B4B18682EF09AFCF1
S31508002B500A4B1B78012B03D1094B18682EF092FCFF
S31508002B600020084B20701870074B187010BD022003
S31508002B70FCE700BFF9020720645F0520F70207207B
S31508002B80605F0520FB020720FA02072030B5002403
S31508002B901B4B85B0DA8C1B4DADF804209A8C1B8D27
S31508002BA0ADF80820ADF80C30FFF7CAFF284605F047
S31508002BB059F9224621466C6501A802F0F7F9224622
S31508002BC0214602A802F0F2F92246214603A802F09D
S31508002BD0EDF90D4B186802F00FFC0C4B186802F063
S31508002BE00BFC31F05EF905462146012030F05EFB0C
S31508002BF0284631F051F92046054B1C7005B030BD0A
S31508002C00384F030800000A50645F0520605F0520FE
S31508002C10F8020720F8B53B4D2B78002B42D03A48EE
S31508002C2011F0010F00F1100308BF1946374E384B53
S31508002C3032681C6818BF0146A2422CD2CB786FF3C3
S31508002C400513CB70334B1B6803EB42038B60A31A47
S31508002C50B3F5006F0B8817D940F2FF7402F50062CE
S31508002C6064F30E130B803260C37803F03003302B05
S31508002C7008D1C37C03F03003302B03D100232B701B
S31508002C80FFF75EFF0120F8BD671EBA1A62F30E133E
S31508002C900B803460E8E70A681F4B13430B601F4B31
S31508002CA08B60E1E71E4B1B78002BEBD0C943164817
S31508002CB001F0010300EB0314E2781D01C2F30112CF
S31508002CC0032A0FD1124A46591168164A0139C1F327
S31508002CD00A01324042EA01124251134A52F823309D
S31508002CE0A360CFE7114A1268002ACBD010490848DA
S31508002CF009780068B0FBF1F10B4850F823009047BB
S31508002D00C0E700BFFB0207203C150720685F0520C7
S31508002D106C5F0520785F0520F07F0030369D052022
S31508002D20FA0207200F80FFCF705F05207C5F052021
S31508002D30F70207202DE9F047544E96B0354609AC00
S31508002D400FCD0FC42B6806F1140523600EAC0FCD0A
S31508002D500FC495E80F00DFF84C8184E80F004C4853
S31508002D6031F0C8FC404631F0C5FC4FF48073494F3A
S31508002D70ADF83C30484B38460B9309A90EAB0D937A
S31508002D8004F0DEFB04214FF4E065B6F834A00DEB41
S31508002D9001000122ADF804A002F008F9B6F8369051
S31508002DA00022012102A8ADF8089002F0FFF8368F3C
S31508002DB00122042103A8ADF80C6002F0F7F80122FD
S31508002DC0042104A8354CADF8105002F0EFF8344B46
S31508002DD04FF44870C4F8C8344FF00213C4F8C4342A
S31508002DE003F58033C4F8CC341C23C4F8B43408F093
S31508002DF023FF08A8ADF8205002F04CF9142008F07B
S31508002E001BFF08A8ADF8205002F014F9232008F09B
S31508002E1013FF08A8ADF8205002F03CF9B92138464E
S31508002E2025F028FB08A8ADF8205002F003F9002287
S31508002E3005A81146ADF814A002F0B8F8002206A8B5
S31508002E401146ADF8189002F0B1F80122002107A842
S31508002E50ADF81C6002F0AAF80122002108A8ADF816
S31508002E60205002F0A3F8384604F022F80023404622
S31508002E70C4F8B434C4F8C834C4F8C434C4F8CC3478
S31508002E8031F03BFC16B0BDE8F08700BF644F03087D
S31508002E90F474030800C00850E070720000C00350C4
S31508002EA002000100F874030838B504460D4601B15E
S31508002EB018B93721034824F0B7FF23682B6025602B
S31508002EC038BD00BF9E4F030838B504460D4601B10C
S31508002ED018B94521044824F0A7FF236813B92B60C5
S31508002EE0256038BD1C46F8E79E4F030810B5044612
S31508002EF018B95621044824F097FF206818B10368CA
S31508002F0023600023036010BD9E4F030838B50446AE
S31508002F100D4601B118B98B21064824F085FF2368B0
S31508002F202BB1AB4204D12B68236000232B6038BD3C
S31508002F301C46F4E79E4F03084FF0BA4201230548A2
S31508002F4002F580514B60086203490968D160034A5B
S31508002F501370704701000C1F7C150720FC02072020
S31508002F604FF0BA41074BCA681A600123064A5360F4
S31508002F704B6813F00203FBD14FF0FF311162034A8D
S31508002F80137070477C1507200020005DFC0207209F
S31508002F904FF0BA42D369126A10B5134013F0F850CD
S31508002FA01EBF0120114A1070DC070ED54FF0BA413A
S31508002FB00A695007FCD50E4A4C691068204410600F
S31508002FC088695168014401205160590341BF084985
S31508002FD00A6802F180720A601A0341BF04494A6806
S31508002FE002F180724A60034AD36110BDFD020720D0
S31508002FF0805F05200020005D0023044A0449137001
S31508003000044A05481360054A00F0B8B9FD020720CE
S31508003010612F00088C5F0520392F0008912F0008C2
S3150800302008B500F00FFA4FF0BA430A4AD96913688F
S3150800303041F201500B4313604FF47D32064BDA61BF
S31508003040064B1A78002A4FF0000208BF10461A707D
S3150800305008BD00BF8C5F05200020005DFD0207202B
S3150800306009230E4A70B5C0F81031136805460133B6
S315080030700E461360FFF7D4FF044660B900F0D0F996
S315080030804FF48A722846064900F0AEF91EB1BDE82B
S315080030907040FFF7C5BF204670BD00BF885F05209A
S315080030A06400005D0729F8B505460C4610EE107A4F
S315080030B010EE906A04D940F20711044824F0B4FED1
S315080030C005EB840325F824705E80F8BD0E500308CE
S315080030D02DE9F84F042980460D4693469946BDF8D2
S315080030E02840BDF82C70BDF83060DDF838A004D94A
S315080030F04FF49171344824F097FEB4F5806F04D9E3
S3150800310040F22311304824F08FFEB7F5806F04D9BA
S315080031104FF492712C4824F087FEB6F5806F04D9D7
S3150800312040F22511284824F07FFE0D9B03F5006325
S31508003130B3F5805F04D34FF49371234824F074FEEB
S315080031400AF50063B3F5805F04D340F227111E48E1
S3150800315024F06AFE0F9B03F50063B3F5805F04D382
S315080031604FF49471184824F05FFE184B0F9A013EED
S3150800317003EA0242C6F3090616430D9A013C03EA1E
S315080031800A4AC4F3090403EA02431C43013F4FEA0F
S31508003190093303F44053C7F309071C4347EA0A07F0
S315080031A008EB051319F0040F05F10205C3E90A76C1
S315080031B018BF44F480442B0108EB05156C6048F8E9
S315080031C003B0BDE8F88F00BF0E5003080000FF0FDC
S315080031D02DE9F041072905460E4614461F469DF877
S315080031E0208004D94FF4B5710A4824F01DFEDDE9A4
S315080031F0062324051A43B8F1000F01D044F0004411
S315080032000C2303FB0651C1E92C72C1F8B840BDE88E
S31508003210F08100BF0E5003082DE9F0410729064644
S315080032200C46154698469DF8187004D940F27D114B
S31508003230214824F0F9FD013DABB2B3F5806F04D304
S315080032404FF4BF711C4824F0EFFDB8F1070F04D9FD
S3150800325040F27F11184824F0E7FD072F04D94FF4F0
S31508003260C071154824F0E0FD0C21079B06EBC4024B
S3150800327045EA0335089B15671B03536701FB08627C
S31508003280B845D2F8B8004FEA440406D10323A34050
S315080032900343C2F8B830BDE8F0810123A3400343D5
S315080032A0C2F8B830022201FB0766D6F8B830A24049
S315080032B01343C6F8B830EEE70E500308F8B50021F8
S315080032C00C250446D0F8743200F50976DFF854C0A8
S315080032D0D0F868028B4217DA05FB030393F8BB2084
S315080032E0002142F0800283F8BB20FFF7B9FE4FF4B5
S315080032F08A72D4F86C3283F00103C4F86C3202FB8C
S315080033000343C4F86832F8BD05FB0107D7F8B820AF
S3150800331056F804EF02EA0C0242EA0E02C7F8B82091
S315080033200131D7E70000FFFF8B1E012B03D8044BA2
S315080033301B6823B11847012901D8024BF8E77047E3
S31508003340A45F0520A85F052010B530F0AAFD044645
S31508003350002101202FF0AAFF204630F09DFD002213
S31508003360014B1A7010BD00BFFE020720024B03C8AE
S3150800337083E8030000207047985F052038B5114C94
S315080033802378E3B9104B114D1960114B28601A6068
S315080033904FF080420F4B10489A66FFF7E7FF1C2054
S315080033A006F0FCFD2B6803B198470C480C4908F059
S315080033B0D3F90123002023700A4B187038BD122058
S315080033C0FCE700BFFF020720A45F0520A85F0520D1
S315080033D0A05F052000900050985F0520905F0520AB
S315080033E088500308FE0207200B4B10B51B7873B1F3
S315080033F00A4B1B786BB1002392089A4201D1002030
S3150800340010BD50F8234041F823400133F5E7112059
S31508003410F6E70E20F4E700BFFF020720FE020720AA
S3150800342010B530F03EFD0121044608462FF03EFF58
S31508003430204630F031FD0122014B1A7010BD00BF45
S31508003440FE020720064B1B7843B14FF0BA421369B8
S315080034505B07FCD5034A1378002BFCD1704700BFE5
S31508003460FF020720FE02072008B5054B1B682BB193
S31508003470984718B1BDE80840FFF766BF08BD00BF0A
S31508003480A05F052000487047AC5F052000487047DC
S31508003490AC5F0520F0B5044601258C4205D88D425F
S315080034A003D8002015601C60F0BD0020DFF828C096
S315080034B01CF8017BB4FBF7F607FB164EBEF1000FAE
S315080034C005D1B44207FB05F504D03446E5E70130DB
S315080034D00B28EDD10120E5E7905003082DE9F04FC0
S315080034E0174687B004460D469846FFF7CBFF17F1F7
S315080034F0800F064602D1B8F17F0F04D0A02D12D84E
S315080035002544A54203D1002007B0BDE8F08F94F901
S3150800351000309F4202DD27700134F2E79845B8BFB4
S3150800352084F80080F8E74FF0000940F20A2A3B4683
S315080035303A460021304624F08BFC43464246012198
S31508003540304624F085FC4B464A4649463046CDE986
S315080035500199CDF800A0FFF73BFE40F20B232F4A56
S315080035600121CDE90032304640F2D5122C4BCDF878
S315080035700890FFF72DFE01212A4B40F2D512CDE91E
S31508003580013130460221284BCDF800A0FFF720FE76
S31508003590B5F5006F2B4628BF4FF4006323F0030BE5
S315080035A04FEA5B0A1FFA8AFA22460021304605933B
S315080035B0CDF800A0052324F071FC0523224601213D
S315080035C03046CDF800A024F069FC0223059A0021B4
S315080035D030460093CDE901990123C2F38F02FFF724
S315080035E01BFE01213046FFF73BFD00288CD1A5EBD9
S315080035F00B059F2D5C44CBD8002D84D0254414F9A7
S31508003600013B9F4204DD04F8017CA542F7D17AE725
S315080036109845B8BF04F8018CF7E700BF0000A02161
S31508003620000102200000B021000103302DE9F04F0F
S31508003630036895B00593436A066D0693836A4268E4
S315080036400793C36A856B0893036ED0F814B0099381
S31508003650C36DD0F83C900A938369DFED576A0B93E4
S3150800366083680BFB01FA0C93036B0D93436C00699B
S315080036704B43F41A24EAE474F71A9B1B2344534376
S315080036800744AF42A8BF2F46019302FB05F3002566
S3150800369002FB00F1119302FB04F30E9713911293A8
S315080036A0059B9D4203DB002015B0BDE8F08F002086
S315080036B00B9B129E53440493584574DB0199139B44
S315080036C001351944DA440191EAE74FF000080C9BEA
S315080036D0734402930D9B63440393904547DB01377C
S315080036E0964494440E9B9F42EFDBB9F1000F0BD032
S315080036F039F81030F2EE677A07EE103AB2EE477AEA
S3150800370077EE277AF3EE677A089BF2EE677A33F854
S315080037101030013007EE103AB2EE477A67EE277A94
S31508003720F3EE677AF2EE677AFDEEE77A17EE901A0D
S31508003730ADF80830099B1944069B9942B8BF19464B
S31508003740079B9942A8BF194607EE901AF8EEE77A42
S31508003750F3EE677AF2EE677AFDEEE77A17EE901ADD
S31508003760049B03F8011B0493119B1E44A4E7029BC8
S31508003770F2EE677A13F9011B08F101080293039B1D
S315080037800F9113F9011B109103930F990A9B194482
S31508003790109B594307EE101AB8EEC77A47EE267AF9
S315080037A0F3EE677A99E740F20003B446274607EE38
S315080037B0903ADDF804E095E7000000382DE9F04F6F
S315080037C02DED048B436CD5B02D93836D81463993CB
S315080037D0436D90ED178A3A93036DD0F840A01F9376
S315080037E0C36C90F848401593836811911093036B46
S315080037F03B93C36B0B93C36A3C9340F20003ADF84B
S315080038004A318369479300235393FFF73FFED9F85C
S315080038106430804620932CB91F9B159A13431CBF0E
S3150800382021235393399B012B02D13A9B012B07D0B5
S3150800383021235393119B002B40F0AA80539878E1DB
S31508003840119B002B40F0A480539B002BF6D1D9F88E
S31508003850043040460993D9F81430D9ED188A0A93EA
S31508003860D9F80C30BAEEE88A1693D9F8343000271E
S315080038702193D9F81C30B3EE488A2E93D9F8003034
S315080038802F93D9F810300F93D9F838301793D9F801
S315080038902030189324F0E1FB099A0F9B08975343AD
S315080038A0139302EBD2735B101293139B0F9A03EBDD
S315080038B0D3735B103F93169B5343099A5343409324
S315080038C040F2002309EE103A089B2F9A93427CDBBC
S315080038D0219A169B9B1A159A134493FBFAF3179A87
S315080038E04E930F9B9B1A1F9A13442D9A93FBF2F340
S315080038F00A9A4D93189B5343179A1493099B53435B
S315080039002493249A219B5343099A33932D9B53431B
S315080039104B93139B0B9A03FB0AF34C93BDF8283081
S315080039201E930B9B002B1E9B08BF012344930DF58A
S31508003930A57318BF1346189A49932E9B53430A9AA0
S3150800394053434F9300230E9340F2002309EE103A97
S315080039500E9B189A9342C0F2F180119B002B3FF4FC
S315080039606DAFFFF75DFB5390002840F0E280DDE97C
S315080039702E135943189B0A98594399F92420414311
S3150800398099F92830D9F81800FFF7A8FD539055E79C
S315080039903B9A109B13430B9A13433C9A1343D8073D
S315080039A00BD521235393209B0BB92123539340F224
S315080039B00311834824F038FA40E7209B002BF4D003
S315080039C0539B002B3FF443AFF1E7139A099B4046FC
S315080039D013433B43D9074BBF9346DDF8FCB0099C1C
S315080039E0129C4CBF00260126BBF5006FA8BF2823F2
S315080039F053ADA8BF539324F0A6FAD8F868020695E3
S31508003A000125BDF83C20BDF858300D920192109A58
S31508003A10002EA1B20C9300930E9114BF05232B46DA
S31508003A2002913A440021CDE90445CDF80CB024F0C2
S31508003A30B2FA53ABD8F86802CDE905530E9B209A23
S31508003A4002930D9B002E01930C9B29460093CDE90A
S31508003A5003B414BF0623022302EB470224F09BFAA1
S31508003A60B0EE490A0021D8F8680224F00BFA002EB5
S31508003A7049D0F0EE480AB0EE480A2946D8F8680256
S31508003A80FFF710FB53AD2A464046169924F028FA4C
S31508003A902A4640460F9924F023FA2A4621464046EC
S31508003AA024F01EFA474B40F2CD11474A4046009390
S31508003AB0019540F20D2324F052FA404624F0B6FA56
S31508003AC002220021404624F0CCFA02220121404677
S31508003AD024F0C7FA404624F0A9FA012200214046FC
S31508003AE024F0BFFA01224046114624F0BAFA4046AD
S31508003AF024F09CFA539B73B1119B002B3FF49EAEA6
S31508003B0040F2791155E7B0EE480A2946D8F8680216
S31508003B1024F0B8F9B6E7119B2BB9089B0133089333
S31508003B20409B1F44D0E64046FFF7C8FB5390002849
S31508003B30F3D055B0BDEC048BBDE8F08F0E9B2D9AE3
S31508003B401F995A431F9B1798D31A8A1A22EAE272B8
S31508003B5019920F9A1999D21A9042D4BFC1EB000153
S31508003B60C1EB0201002B27DB0E984D9C179D954251
S31508003B70D8BF20462790279A0E98121A01320B9220
S31508003B80099A4A4319993492399A01FB02330B99D7
S31508003B904193DDE94B320129D8BF1346139A2C937A
S31508003BA01343469300230C930C9B2E9A93420DDBEA
S31508003BB0279B01330E93CBE60E9A2792DBE700BFCD
S31508003BC09B5003080000E021050001600C9B159A34
S31508003BD00AFB03F3991AD31A169A219823EAE37370
S31508003BE0521A9042D4BFC3EB0000C3EB020000296F
S31508003BF008905BDB0C994E98219C9442D8BF0146ED
S31508003C002891289A0C99521A259201320D92259AD2
S31508003C10002A77D00B9A012A74DD089A924566D055
S31508003C2047DDAAEB020B0D9A012A68DC01260D9ADC
S31508003C301799B242A8BF32464A92149A0D9872430F
S31508003C403092721E2292309AB2F5006F229AB8BF4D
S31508003C500022269201325092199A01FB03220999F1
S31508003C604A432499114348910B990129D8BF014623
S31508003C7089B242913B998A1843920C9A15990AFB84
S31508003C8002F2521A3A9903FB0123309A3193149B94
S31508003C90B2F5006FB8BF1346369300231293129BF2
S31508003CA04A9A934232DB289B01337CE70C9A289286
S31508003CB0A7E7089A089992FBFAF20AFB121B16461E
S31508003CC0BBF1000F0ED00D9A0136012AAAEB0B0B99
S31508003CD0ADDD0A465A4406FB0AF19142A7D02822CE
S31508003CE05392A4E70D9A012AA1DD089AF3E70D9AE3
S31508003CF0012A07DD524601264FF0000BEBE7524634
S31508003D000126E8E701264FF0000B90E7129B0D9A73
S31508003D109342C4BF28235393259B129A01339B1AB7
S31508003D2093FBF6F206FB1233002B18BF0132012A69
S31508003D300B9B1B9209D1012B45DD00231093109A8A
S31508003D40089B13441B9A534307E0012B38DCBBF14D
S31508003D50000F32D1089BCDF840B02993509A1B9B8F
S31508003D600F9953433D931B9B319A73433293109B90
S31508003D70013B002B3E93CCBF4FF48773002345933A
S31508003D80419B01FB0233099A18995343129A2393CC
S31508003D900C9B13440E9A01FB03230A9A53431D9363
S31508003DA000232A932A9B2F9A934211DB129B0133F5
S31508003DB01293319B5344319371E728235393C9E7F0
S31508003DC0CDF840B0BBE7089B299300231093C5E7BD
S31508003DD0309BB3F5006F12DB149BB3F5006F0EDB57
S31508003DE01D9B002B4FF02803539303DA0A9B002BE5
S31508003DF0C0F29981329B149D229F1C9311E01D9B52
S31508003E00369D002BBCBF282353930A9B269F002B65
S31508003E103D9B1C9301DA28235393002D01DA2823AE
S31508003E205393DDE933321343469A1343489A1343AF
S31508003E30239A1343DB0700F17B810122349B03EBB2
S31508003E40D3735B102B932C9B03EBD3735910339BC3
S31508003E5003EBD3735B103893249B03EBD3735B108C
S31508003E6037933F9B012440461A925191359324F08B
S31508003E706AF81A9BD8F86802002B53AB0693359B51
S31508003E80BDF8AC2051990493BDF8A430039135923E
S31508003E90239902920193209A429B02EB41020093D6
S31508003EA04FF0000114BF06230223059424F073F88B
S31508003EB01A9BD8F86802002B53ABCDE90543379B0C
S31508003EC021460493389B439A0393359B0293BDF886
S31508003ED0203001931E9B009314BF0523234624F02C
S31508003EE05AF853AB0193449B499A00930223D8F896
S31508003EF06802194624F088F853AB01931E9B0321E8
S31508003F0000933C9A0223D8F8680224F07DF853AB54
S31508003F10CDE905430A9B1D99CDE903531E9BBDF8C0
S31508003F2070500293BDF82C30479A019300952346AA
S31508003F300A44D8F86802042124F02DF8B0EE490A9C
S31508003F400021D8F8680223F09DFF1A9B002B00F089
S31508003F50F980F0EE480AB0EE480A2146D8F8680219
S31508003F60FFF7A0F8B8EEE80A0024B3EE400A0221EB
S31508003F70D8F8680223F086FF40460A9953AA23F028
S31508003F80AFFF53AB412140468C4A019300944EF64D
S31508003F902C4323F0E4FF40460B9953AA23F0A0FFD5
S31508003FA040461B9953AA23F09BFF4046089953AAFB
S31508003FB023F096FF40462B9953AA23F091FF53AB63
S31508003FC040F2D7117E4A4046CDE900437D4B23F0A7
S31508003FD0C6FF404624F02AF802222146404624F02D
S31508003FE040F802220121404624F03BF8404624F0DE
S31508003FF01DF80B9B012B04DC01222146404624F0C8
S3150800400030F8109B002B04DD02220021404624F0E4
S3150800401028F81A9B002B00F09D80109B4A219D1EB4
S3150800402053AB0193002340460093674A459B23F010
S3150800403096FF6B1E1A934FF04F63002D53AC0093F7
S3150800404040F2CD11CCBF4FF48773002340465F4A38
S31508004050019423F084FF002F0FDD2246394640469F
S3150800406023F03EFF00224046CF23114601940092DA
S3150800407023F075FF404623F0D9FF002753AC3B4693
S31508004080412140464D4A0194009723F068FF1A9B48
S31508004090012B61D119462246404623F021FF3B46B3
S315080040A03A4639464046CDE9007423F058FF404663
S315080040B023F0BCFF02223946404623F0D2FF404691
S315080040C023F0B4FF02220421404623F0CAFF0B9BCB
S315080040D0012B04DD01220021404623F0C2FF4046A1
S315080040E023F0A4FF04224046114623F0BAFF01221A
S315080040F04046114623F0B5FF04220221404623F02C
S31508004100B0FF04220321404623F0ABFF404623F0CC
S315080041108DFF539B002B3BD0119B002B3FF48EAB9E
S3150800412040F2663145E4329B149D229F1C9372E649
S31508004130339A2C993892249A139B3792349A2B9255
S3150800414000228FE6B0EE480A2146D8F8680223F026
S3150800415099FE07E73E9D6CE7B1DD22464046A91E5B
S3150800416023F0BEFE22464046012123F0B9FE3A4618
S3150800417039463B464046CDE9007423F0F0FE4046FA
S3150800418023F054FF02223946404623F06AFF8EE7A1
S31508004190119B5BB92A9B409A01332A93239B1344AC
S315080041A023934F9A1D9B13441D93FBE54046FFF747
S315080041B085F853900028EDD0BBE400BF00000450FA
S315080041C0060705500E7E080000000550050302701C
S315080041D02DE9F04F2DED048B04468DB040B1D0F893
S315080041E02CB0BBF1000F05D03621CE4823F01CFEBB
S315080041F021208DE1036ADFEDCC8A13F0010F14BF8D
S315080042004FF480624FF400629A42C0F2EB80FFF7E7
S3150800421039F9D4ED057AB8EEE78AE36C276A07938D
S31508004220B4F8503017F0010609EE103AE36B05466C
S315080042300593236C28EE288A0693BDF814A0BDF8CA
S31508004240189040F0B88007EBD7784FEA6807C8F3AC
S315080042504F08CDE900A805233146226823F02EFE33
S3150800426005230121CDE90098A269284623F026FEF8
S31508004270226B002A00F0AE80A38E00930223194613
S31508004280284623F00BFECDE900A90123A26B0321E2
S31508004290284623F013FEDFEDA40A0021B0EE600ADB
S315080042A0284623F0F5FDF0EE480AB0EE480A01214B
S315080042B0284623F0EDFDB0EE490A0321284623F0EF
S315080042C0E1FD04212846079A23F0D0FD4FF00008A7
S315080042D040F22D234246414628460093CDE90188FF
S315080042E04346FEF775FF914B40F2D7120121284647
S315080042F00093CDE901888E4BFEF76AFF40F2D7128C
S3150800430002212846CDE901888A4BCDF80080FEF7C0
S315080043105FFF002E63D14A2203212846CDE90166B4
S31508004320854B0096FEF754FF4FF0040800264FF021
S31508004330010B824B5FFA88F840F2D71241462846AD
S31508004340CDE9013B00967E4BFEF742FF33465246C7
S3150800435031462846CDE90166CDF80080FEF75CFFB8
S3150800436042F202034A4659462846CDE90083029698
S315080043703346FEF751FF022120232846CDE90013D4
S3150800438002965B46BAB2FEF747FF59462846FEF73D
S3150800439067FE002840F0BC80DDE90510414394F92A
S315080043A0533094F95220A06B0DB0BDEC048BBDE8D8
S315080043B0F04FFFF793B81FFA87F8CDE900A8012355
S315080043C05946226823F07AFD0123CDE9009819465B
S315080043D0A2694AE701235B4A009302234FE74FF09D
S315080043E00308A3E7FFF74EF8D4ED057AB8EEE78A97
S315080043F0B4F85030054628EE288A09EE103AE36BE1
S31508004400F0EE680A0793236CB0EE680A59460593DE
S31508004410E66C276A23F03CFDF0EE480AB0EE480A3F
S315080044200121284623F034FD03212846B0EE490A27
S3150800443023F028FD07F0010832460421284623F018
S3150800444015FDB8F1000F68D1052307EBD7704010AA
S3150800445006934FF480610BAB0AAAFFF71BF80646D2
S3150800446000287FF4C5AE314B014640F2D712CDE99C
S315080044700100009328462E4BFEF7AAFE40F2D712FB
S3150800448001212846CDE901662A4B0096FEF7A0FED3
S31508004490B8F1000F44D102214A222846CDE9018805
S315080044A0254BCDF80080FEF793FE032100264FF03A
S315080044B00108224B40F2D7122846CDE9013800966A
S315080044C01F4BFEF785FE334631462846BDF82820A1
S315080044D0CDE90166CDF80080FEF79EFE222341460F
S315080044E0CDE9008328463346BDF82C200296FEF710
S315080044F093FEB246B346079B5B456EDC0598079963
S3150800450094F95330414394F95220A06BFEF7E6FF25
S315080045100DB0BDEC048BBDE8F08F3846012397E754
S315080045200221C3E71B510308000000380E7E08006D
S315080045300600016006070550000005500000D0235C
S3150800454005030450A4510308A36922684B44089341
S31508004550236B3244002B3DD033F81830A16B08EE9C
S31508004560103A08EB0A03CB180993BDF82C30002142
S315080045700193BDF8283028460093069B23F09EFC3D
S31508004580BDF82C3001210193BDF828302846089A39
S315080045900093069B23F092FC0123099A00930321BA
S315080045A0284623F07BFCB0EE480A0521284623F06E
S315080045B069FC01212846FEF753FDB9440028A7D116
S315080045C008F10108059B4345BEDC0BF1010B9A4433
S315080045D03E4490E740F20003C0E74FF00009C846A2
S315080045E0F0E700BF58B1031F9FED137A0020DFEDF7
S315080045F0136A9FED136A01EB4202914200D170479C
S31508004600D3ED017AF8EEE77A67EE877AF4EEE67A82
S31508004610F1EE10FA03F104030CDCF4EE467AF1EE3F
S3150800462010FA48BF2120F3EE677A17EE90CA21F8F0
S3150800463002CBE2E72120F6E70000003800E07F47DA
S3150800464000E07FC72DE9F04F2DED048B0368C1B05C
S315080046503293C36890ED098A21930369D0ED088ADD
S3150800466011938369D0F804A02A93C36990F8385047
S315080046702293036C14911693C36B1293D0E90C839F
S315080046802393C36A2493836A259383682B93436988
S315080046902C9300233F93FEF7F9FE0446A5B9169B13
S315080046A0129A134310D021233F93149B8BB1DDE953
S315080046B02B321343DB070ED521233F934FF47B712F
S315080046C09D4823F0B1FB04E0149B002BEFD13F9BE0
S315080046D023B13F98F4E23F9B002BEFD1204623F00D
S315080046E0BCFC259A219B9B1A129A134493FBF8F358
S315080046F0249A0D93119B9B1A169A1344239A93FB9B
S31508004700F2F33493229B03FB0AF31A93119B03FBE0
S315080047100AF318930AFB02F33593189B189A08FBB9
S3150800472003F33693119B03FB08F30AFB03F3389351
S31508004730219B53431A9A39932A9B53432F93002359
S315080047400E934DF6000309EE103A0E9B229A9342F9
S3150800475006DB149B002BBCD0FEF762FC3F90B8E743
S31508004760239A0E9B24995343169A9A1A2692169AB6
S31508004770D31A23EAE373269A1793119B9B1A179A5F
S315080047809942D4BFC2EB0102C2EB03022D92269ACC
S31508004790002A1DDB0E9A349924989842D8BF0A46F7
S315080047A01D920E9A1D9B9B1A013309930999DDE9FF
S315080047B035320129D8BF1346189A299313433A93D9
S315080047C000232A9A934206DB1D9B01330E93BCE70E
S315080047D00E9B1D93E5E708FB03F21299259D501AD7
S315080047E08A1A219922EAE272091A8D42D4BFC2EBCB
S315080047F00505C2EB010500280A9574DB2598884251
S3150800480071DC0D99C91A4F1C002970D00999012924
S3150800481073DDA8455BD03FDD012FA8EB05095DDCFC
S3150800482001250D990B91BD422946A8BF39463391FA
S315080048301A99681E6943B1F5006FB8BF0020159034
S3150800484001303B900998129E0128D8BF384680B29D
S31508004850309008FB03F0801B0244269E17983044CC
S31508004860119E06FB02020AFB02F222981C920E9A7D
S3150800487000FB03230AFB03F328931A9BB1F5006F89
S31508004880A8BF1946002320911093109B339A934290
S3150800489036DB0B9B013394E70A9991FBF8F508FB85
S315080048A01519B9F1000F0DD0012F05F10105A8EB77
S315080048B0090909DD494405FB08F088421CBF28217F
S315080048C03F9101E0012F0CDC0D990B91ABE7012F0D
S315080048D013DD414601254FF00009ECE74146012565
S315080048E0E9E70A99E7E701270B93012502E03D4628
S315080048F00D990B914FF0000995E70D990B91F4E787
S31508004900109BBB42C4BF28233F93109BFB1A93FB03
S31508004910F5F205FB1233002B18BF0132012A099B59
S3150800492019920BD1012B3DDD4FF0000B0A9B199A0A
S315080049305B44534309E000BFA6510308012B2FDC53
S31508004940B9F1000F29D1CB460A9B1E93199B3B9AB6
S31508004950BBF1000F02FB03F39BB23193ABF10203E9
S31508004960C8BF4FF0FF333793289B13931C9B1B93A9
S3150800497000231F931F9B329A934280F2A681BAF1B5
S31508004980000F40F38B81139B002BBCBF28233F935A
S31508004990139B279300230F9310E028233F93D2E716
S315080049A0CB46C3E70A9B4FF0000B1E93CEE70F9B3F
S315080049B0139A9B18279344BF28233F93209B0F9A4B
S315080049C0002BBCBF28233F931B9B9A180F9B0133D0
S315080049D0534580F228813A9B27994AEA03030B43F9
S315080049E0134313F001030C9340F02081209B13F02E
S315080049F001030C9340F01A81012602230C93189B9D
S31508004A003D920C9A204693FBF2F13C9123F09BFAD7
S31508004A100C9A3C999AFBF2F2D4F868022E92059207
S31508004A200491299A0C99002E92FBF1F10CBF0123EF
S31508004A3005230391BDF8B410309A0291BDF8781099
S31508004A40009201913D9A2B993FAE0A4406960021A1
S31508004A503C9323F0A0FA002305932E9B0C9A04930B
S31508004A60209B2C9993FBF2F201230392BDF8242094
S31508004A700293319B0192279A009306960A443C9B1F
S31508004A800121D4F8680223F086FA4DF60003F0EE09
S31508004A90490A00EE103A0021D4F86802FEF702FB34
S31508004AA0F8EEE80AF3EE600A0321B0EE600AD4F8DD
S31508004AB06802FEF7F7FAF8EEC80AF3EE600A042170
S31508004AC0B0EE600AD4F86802FEF7ECFA32462046E1
S31508004AD0099923F005FA32462046199923F000FA77
S31508004AE000234FF08052009341212046019623F07F
S31508004AF036FA324620460A9923F0F2F9324620461B
S31508004B002D9923F0EDF9002340F25311754A2046FA
S31508004B100093019640F20A2323F021FA204623F057
S31508004B2085FA02220021204623F09BFA204623F02C
S31508004B307DFA099B012B04DC01220021204623F083
S31508004B4090FABBF1000F73DD02220021204623F004
S31508004B5088FABBF1010F6BD03FAB01934FF01D6391
S31508004B6040F2D511009320464FF485735E4A23F030
S31508004B70F6F9159BABF10206002B1DDD20461599AB
S31508004B803FAA23F0ADF9012120463FAA23F0A8F950
S31508004B9000233FAA19460093204601921A4623F09D
S31508004BA0DEF9204623F042FA01222046114623F078
S31508004BB058FA204623F03AFA002E17DD012E3FAAAE
S31508004BC047D13146204623F08BF93FAB01930023AA
S31508004BD020461A461946009323F0C1F9204623F0C9
S31508004BE025FA02220021204623F03BFA204623F02C
S31508004BF01DFA02220121204623F033FA099B012BD4
S31508004C0004DD01220021204623F02BFA204623F05A
S31508004C100DFA3F9B002B38D0149B002B3FF459AD5F
S31508004C2040F25C514CE500260123E7E60026E6E65D
S31508004C303FAB01934FF01D6340F2D5110093204618
S31508004C400023294A23F08BF9159B002BCEDD379ECE
S31508004C5094E72046ABF1030123F042F920463FAA28
S31508004C60012123F03DF93FAB0193002320461A4664
S31508004C701946009323F073F9204623F0D7F9022248
S31508004C800021204623F0EDF9A8E7149B93B90F9B62
S31508004C900C9A13449A450F933FF789AE1F9B399A8E
S31508004CA001331F931B9B13441B932F9A139B134487
S31508004CB013935FE62046FEF701FB3F900028E6D0F7
S31508004CC041B0BDEC048BBDE8F08F109B389A0133D8
S31508004CD010931C9B13441C931A9A289B13442893DD
S31508004CE0D3E500BF02000110030401500348044A3B
S31508004CF00449121A921023F0E3BA00BFB40100085F
S31508004D00B40100080815072008B5154B83F30A886F
S31508004D1000F030F8FFF7EAFF124B13498B4212D323
S31508004D200020124B12498B4218D3FCF72BF918684E
S31508004D3050F82240586840F822400132986882426A
S31508004D40F5D30C33EAE70022F8E71C6844F822009A
S31508004D5001325C68A242F8D30833E4E70022F8E798
S31508004D600000002094CC0508A0CC0508A0CC0508B6
S31508004D70A0CC05084FF48041144B154A70B59A60CB
S31508004D80D3F88820134D42F47002C3F88820124ADB
S31508004D9005F5005491664FF0FF3222666FF4003233
S31508004DA062660D22A2660222C3F8D020BFF34F8F97
S31508004DB0BFF36F8F4FF44036002005F021F900202D
S31508004DC0E66005F0EBF82E6170BD00BF00ED00E06F
S31508004DD0000000080080004400900050014B186055
S31508004DE0704700BF84150720054B1860054B1B6FDD
S31508004DF003F00703032B01D12CF0A0BA704700BFBC
S31508004E008C15072000800050002307B52948019318
S31508004E102FF070FC4FF44073012204216846ADF868
S31508004E20003000F0C3F80122234B0520C3F84424C0
S31508004E3001A92FF05AFC002839D1204BD3F8F020CD
S31508004E4042F00102C3F8F020D3F8FC2042F0807249
S31508004E50C3F8FC201A4AA3F55D431A60019B194A58
S31508004E6003F5D52303F2FC43B3FBF2F3164A013BE1
S31508004E7013610223C2F8F0304FF48073C2F804338A
S31508004E804FF06043114AC3F8B02F114AC3F8802E79
S31508004E90D3F8002E42F48072C3F8002EFF2283F85E
S31508004EA02020D3F8002E22F48072C3F8002E03B017
S31508004EB05DF804FBF474030800D0035000ED00E02D
S31508004EC0FF030040F8590D00000004E055CEACC5BC
S31508004ED0090001004FF06043D3F8802E30B5D207A1
S31508004EE015D501240B4D8440D5F8FC2042F080727C
S31508004EF0C5F8FC20D3F8002E2243C3F8002E53F839
S31508004F002020002AF0D003F82010002030BD112000
S31508004F10FCE700BF00ED00E02DE9F04104460C2552
S31508004F204FF00108124E0CB314F001000BD000200C
S31508004F3024F0010405FB00625768002FF3D091683E
S31508004F40C0B2B847EFE72246013020284FEA52029E
S31508004F5001D0D307F8D508FA00F20F2824EA02048C
S31508004F60E8D9103805FB0062B432E5E7BDE8F08100
S31508004F702862052008B50C482FF0BCFB272005F051
S31508004F8027F828B1272005F03BF8272005F006F872
S31508004F90282005F01DF828B1282005F031F828202A
S31508004FA004F0FCFF002008BDF47403082DE9F04165
S31508004FB00E469046044638B993211C4822F034FF21
S31508004FC022252846BDE8F0810F290DD803782BB194
S31508004FD0012B0FD0022B10D0032B05D140F2FF7303
S31508004FE06278D340DB070BD49721104822F01CFFC8
S31508004FF02125E6E740F2FF13F2E743F6FF73EFE7F2
S315080050000B4BD3F810532DB19B21084822F00CFF07
S315080050100225D6E72EF04EFF074642462046314681
S3150800502004F04CF938462EF040FFCAE72752030829
S3150800503000C0035038B5044628B91548E42122F0C3
S31508005040F3FE222038BD03782BB1012B0FD0022B9B
S3150800505010D0032B05D140F2FF736278D340DB07EB
S315080050600BD40B48E82122F0DFFE2120EAE740F2C4
S31508005070FF13F2E743F6FF73EFE72EF01BFF054633
S3150800508020462DF0E1FB28462EF00FFF0020D9E739
S315080050902752030838B5044628B91648FC2122F0D9
S315080050A0C3FE222038BD03782BB1012B10D0022B6A
S315080050B011D0032B05D140F2FF736278D340DB078A
S315080050C00CD40C484FF4807122F0AEFE2120E9E79B
S315080050D040F2FF13F1E743F6FF73EEE72EF0EAFE20
S315080050E00546204604F082F828462EF0DEFE00200B
S315080050F0D8E700BF2752030870B50D46044600B12D
S3150800510031B9174840F22D1122F08EFE222070BDCB
S3150800511003782BB1012B10D0022B11D0032B05D10C
S3150800512040F2FF736278D340DB070CD40C4840F298
S31508005130311122F079FE2120E9E740F2FF13F1E769
S3150800514043F6FF73EEE72EF0B5FE0646204604F05A
S315080051507BF8287030462EF0A8FE0020D7E700BF5F
S315080051602752030808B504F09FF8054B00F05530A0
S3150800517020F0A040C3F82004BDE80840FFF7CCBEE5
S3150800518000E0035008B504F08FF8054B00F0AA308C
S3150800519020F02040C3F82004BDE80840FFF7BCBE55
S315080051A000E0035013B504460A482FF0A3FAA27884
S315080051B00421B2FA82F2237852098DF80430637812
S315080051C00DEB01008DF80530FFF7F0FE002002B068
S315080051D010BD00BFF47403082DE9F04F9A46564BEC
S315080051E085B01B7806460F461546DDF83C909DF8B7
S315080051F044B0DDF85080002B00F09780072A00F2B3
S3150800520096800E9B002B00F09280B9F1000F00F0FB
S315080052108E80129BB3F5006F00F38980012803D1B5
S31508005220109B002B00F08380444B03EB05131B7B7C
S31508005230002B7ED0424C10220021684624F0F1FC57
S3150800524004EB45141022A7BB3946204624F0E9FC96
S3150800525043F210036380BBF1000F03D1E37843F0F8
S315080052600303E370364A0E9B02EB451CCCE9019317
S31508005270129B6901581E9DF84C30C0F30A0003F0D2
S3150800528003039B0643EA001E53582E48012E00EAE4
S3150800529003004EEA0003CDF800A0535017D0B8F12A
S315080052A0000F2ED19CF8023068F304138CF80230F4
S315080052B027E00021204624F0B4FC4FF444736380B1
S315080052C0BBF1000FCED1E37843F03003C9E71323CF
S315080052D00CF1100ECCF80C309CE80F008EE80F008D
S315080052E06FF00301DCF81C20109B61F39F02012F6D
S315080052F0CCF81C20CCF8143003D1CCF81890CCF894
S31508005300043000270D4A290102EB051342F80180F3
S31508005310159A28465A60694622469F605E7302F0CF
S315080053204DFB384605B0BDE8F08F0748FAE7074851
S31508005330F8E70748F6E700BF000307209064052052
S31508005340906305200F80FFF3028000F0018000F0D3
S31508005350078000F038B5124B05461B78DBB1E0B183
S315080053602EF0A8FD0F4A00231146147B54B92B6072
S3150800537001251A0101EB03131D738C502EF095FDC0
S31508005380204638BD0133082B02F11002EDD12EF06C
S315080053908CFD0548F5E70548F3E70548F1E700BF42
S315080053A00003072090640520048000F0028000F0C6
S315080053B0018000F038B52EF07DFD002305460B4A26
S315080053C0147B6CB90133082B02F11002F8D102F0F4
S315080053D077FA074B28461C702EF067FD204603E037
S315080053E028462EF062FD034838BD00BF90640520AC
S315080053F000030720058000F00D4B10B51B78044606
S3150800540093B1072812D82EF055FD0A4B03EB041367
S315080054101A7B2AB100241C732EF047FD204610BDC6
S315080054202EF043FD0448FAE70448F8E70448F6E78F
S315080054300003072090640520068000F0028000F033
S31508005440018000F0154B13B51868002301908DF8FC
S3150800545004302EF02FFD124B1C7824B12EF025FDBA
S31508005460104802B010BD01221A702EF01EFD0E4B18
S3150800547001A81C731C7783F82C4083F83C4083F8FA
S315080054804C4083F85C4083F86C4083F87C400823E2
S315080054908DF8073002F04AFA2046E2E79B520308E5
S315080054A000030720038000F090640520F8B50D4D31
S315080054B02D7885B1072810DC0B4D060105EB001485
S315080054C0277B67B1AB510025069BA560636002F098
S315080054D075FA2846F8BD0548FCE70548FAE7054881
S315080054E0F8E700BF0003072090640520028000F05B
S315080054F0018000F0078000F00A4A08B512785AB110
